{
    "_format": "hh-sol-artifact-1",
    "contractName": "PaySlip",
    "sourceName": "contracts/PaySlip.sol",
    "abi": [
        {
            "inputs": [
                {
                    "internalType": "string",
                    "name": "_companyId",
                    "type": "string"
                },
                {
                    "internalType": "string",
                    "name": "_employeeId",
                    "type": "string"
                },
                {
                    "internalType": "string",
                    "name": "_encryptedData",
                    "type": "string"
                }
            ],
            "stateMutability": "nonpayable",
            "type": "constructor"
        },
        {
            "inputs": [],
            "name": "getEncryptedData",
            "outputs": [
                {
                    "internalType": "string",
                    "name": "",
                    "type": "string"
                }
            ],
            "stateMutability": "view",
            "type": "function"
        },
        {
            "inputs": [],
            "name": "getPayslipInfo",
            "outputs": [
                {
                    "internalType": "string",
                    "name": "companyId",
                    "type": "string"
                },
                {
                    "internalType": "string",
                    "name": "employeeId",
                    "type": "string"
                },
                {
                    "internalType": "string",
                    "name": "encryptedData",
                    "type": "string"
                },
                {
                    "internalType": "uint256",
                    "name": "timestamp",
                    "type": "uint256"
                }
            ],
            "stateMutability": "view",
            "type": "function"
        }
    ],
    "bytecode": "0x60806040523480156200001157600080fd5b5060405162000d1838038062000d1883398181016040528101906200003791906200031f565b60008351116200007e576040517f08c379a0000000000000000000000000000000000000000000000000000000008152600401620000759062000439565b60405180910390fd5b6000825111620000c5576040517f08c379a0000000000000000000000000000000000000000000000000000000008152600401620000bc90620004ab565b60405180910390fd5b60008151116200010c576040517f08c379a000000000000000000000000000000000000000000000000000000000815260040162000103906200051d565b60405180910390fd5b6040518060800160405280848152602001838152602001828152602001428152506000808201518160000190816200014591906200078a565b5060208201518160010190816200015d91906200078a565b5060408201518160020190816200017591906200078a565b506060820151816003015590505050505062000871565b6000604051905090565b600080fd5b600080fd5b600080fd5b600080fd5b6000601f19601f8301169050919050565b7f4e487b7100000000000000000000000000000000000000000000000000000000600052604160045260246000fd5b620001f582620001aa565b810181811067ffffffffffffffff82111715620002175762000216620001bb565b5b80604052505050565b60006200022c6200018c565b90506200023a8282620001ea565b919050565b600067ffffffffffffffff8211156200025d576200025c620001bb565b5b6200026882620001aa565b9050602081019050919050565b60005b838110156200029557808201518184015260208101905062000278565b60008484015250505050565b6000620002b8620002b2846200023f565b62000220565b905082815260208101848484011115620002d757620002d6620001a5565b5b620002e484828562000275565b509392505050565b600082601f830112620003045762000303620001a0565b5b815162000316848260208601620002a1565b91505092915050565b6000806000606084860312156200033b576200033a62000196565b5b600084015167ffffffffffffffff8111156200035c576200035b6200019b565b5b6200036a86828701620002ec565b935050602084015167ffffffffffffffff8111156200038e576200038d6200019b565b5b6200039c86828701620002ec565b925050604084015167ffffffffffffffff811115620003c057620003bf6200019b565b5b620003ce86828701620002ec565b9150509250925092565b600082825260208201905092915050565b7f436f6d70616e792049442063616e6e6f7420626520656d707479000000000000600082015250565b600062000421601a83620003d8565b91506200042e82620003e9565b602082019050919050565b60006020820190508181036000830152620004548162000412565b9050919050565b7f456d706c6f7965652049442063616e6e6f7420626520656d7074790000000000600082015250565b600062000493601b83620003d8565b9150620004a0826200045b565b602082019050919050565b60006020820190508181036000830152620004c68162000484565b9050919050565b7f456e6372797074656420646174612063616e6e6f7420626520656d7074790000600082015250565b600062000505601e83620003d8565b91506200051282620004cd565b602082019050919050565b600060208201905081810360008301526200053881620004f6565b9050919050565b600081519050919050565b7f4e487b7100000000000000000000000000000000000000000000000000000000600052602260045260246000fd5b600060028204905060018216806200059257607f821691505b602082108103620005a857620005a76200054a565b5b50919050565b60008190508160005260206000209050919050565b60006020601f8301049050919050565b600082821b905092915050565b600060088302620006127fffffffffffffffffffffffffffffffffffffffffffffffffffffffffffffffff82620005d3565b6200061e8683620005d3565b95508019841693508086168417925050509392505050565b6000819050919050565b6000819050919050565b60006200066b620006656200065f8462000636565b62000640565b62000636565b9050919050565b6000819050919050565b62000687836200064a565b6200069f620006968262000672565b848454620005e0565b825550505050565b600090565b620006b6620006a7565b620006c38184846200067c565b505050565b5b81811015620006eb57620006df600082620006ac565b600181019050620006c9565b5050565b601f8211156200073a576200070481620005ae565b6200070f84620005c3565b810160208510156200071f578190505b620007376200072e85620005c3565b830182620006c8565b50505b505050565b600082821c905092915050565b60006200075f600019846008026200073f565b1980831691505092915050565b60006200077a83836200074c565b9150826002028217905092915050565b62000795826200053f565b67ffffffffffffffff811115620007b157620007b0620001bb565b5b620007bd825462000579565b620007ca828285620006ef565b600060209050601f831160018114620008025760008415620007ed578287015190505b620007f985826200076c565b86555062000869565b601f1984166200081286620005ae565b60005b828110156200083c5784890151825560018201915060208501945060208101905062000815565b868310156200085c578489015162000858601f8916826200074c565b8355505b6001600288020188555050505b505050505050565b61049780620008816000396000f3fe608060405234801561001057600080fd5b50600436106100365760003560e01c80637ef508bb1461003b57806388acac5e14610059575b600080fd5b61004361007a565b604051610050919061036c565b60405180910390f35b61006161010f565b60405161007194939291906103a7565b60405180910390f35b60606000600201805461008c90610430565b80601f01602080910402602001604051908101604052809291908181526020018280546100b890610430565b80156101055780601f106100da57610100808354040283529160200191610105565b820191906000526020600020905b8154815290600101906020018083116100e857829003601f168201915b5050505050905090565b60608060606000806000016000600101600060020160006003015483805461013690610430565b80601f016020809104026020016040519081016040528092919081815260200182805461016290610430565b80156101af5780601f10610184576101008083540402835291602001916101af565b820191906000526020600020905b81548152906001019060200180831161019257829003601f168201915b505050505093508280546101c290610430565b80601f01602080910402602001604051908101604052809291908181526020018280546101ee90610430565b801561023b5780601f106102105761010080835404028352916020019161023b565b820191906000526020600020905b81548152906001019060200180831161021e57829003601f168201915b5050505050925081805461024e90610430565b80601f016020809104026020016040519081016040528092919081815260200182805461027a90610430565b80156102c75780601f1061029c576101008083540402835291602001916102c7565b820191906000526020600020905b8154815290600101906020018083116102aa57829003601f168201915b50505050509150935093509350935090919293565b600081519050919050565b600082825260208201905092915050565b60005b838110156103165780820151818401526020810190506102fb565b60008484015250505050565b6000601f19601f8301169050919050565b600061033e826102dc565b61034881856102e7565b93506103588185602086016102f8565b61036181610322565b840191505092915050565b600060208201905081810360008301526103868184610333565b905092915050565b6000819050919050565b6103a18161038e565b82525050565b600060808201905081810360008301526103c18187610333565b905081810360208301526103d58186610333565b905081810360408301526103e98185610333565b90506103f86060830184610398565b95945050505050565b7f4e487b7100000000000000000000000000000000000000000000000000000000600052602260045260246000fd5b6000600282049050600182168061044857607f821691505b60208210810361045b5761045a610401565b5b5091905056fea26469706673582212206be347f086eac2658a0cb953bc3800bdb1d3514b887af3900e40c2e127cbbf9964736f6c63430008180033",
    "linkReferences": {},
    "deployedLinkReferences": {}
}